{
  "contractName": "DEX",
  "abi": [
    {
      "inputs": [
        {
          "internalType": "address",
          "name": "token_addr",
          "type": "address"
        }
      ],
      "stateMutability": "nonpayable",
      "type": "constructor"
    },
    {
      "inputs": [
        {
          "internalType": "address",
          "name": "",
          "type": "address"
        }
      ],
      "name": "liquidity",
      "outputs": [
        {
          "internalType": "uint256",
          "name": "",
          "type": "uint256"
        }
      ],
      "stateMutability": "view",
      "type": "function"
    },
    {
      "inputs": [],
      "name": "totalLiquidity",
      "outputs": [
        {
          "internalType": "uint256",
          "name": "",
          "type": "uint256"
        }
      ],
      "stateMutability": "view",
      "type": "function"
    },
    {
      "inputs": [
        {
          "internalType": "uint256",
          "name": "tokens",
          "type": "uint256"
        }
      ],
      "name": "init",
      "outputs": [
        {
          "internalType": "uint256",
          "name": "",
          "type": "uint256"
        }
      ],
      "stateMutability": "payable",
      "type": "function"
    },
    {
      "inputs": [
        {
          "internalType": "uint256",
          "name": "input_amount",
          "type": "uint256"
        },
        {
          "internalType": "uint256",
          "name": "input_reserve",
          "type": "uint256"
        },
        {
          "internalType": "uint256",
          "name": "output_reserve",
          "type": "uint256"
        }
      ],
      "name": "price",
      "outputs": [
        {
          "internalType": "uint256",
          "name": "",
          "type": "uint256"
        }
      ],
      "stateMutability": "pure",
      "type": "function"
    },
    {
      "inputs": [],
      "name": "ethToToken",
      "outputs": [
        {
          "internalType": "uint256",
          "name": "",
          "type": "uint256"
        }
      ],
      "stateMutability": "payable",
      "type": "function"
    },
    {
      "inputs": [
        {
          "internalType": "uint256",
          "name": "tokens",
          "type": "uint256"
        }
      ],
      "name": "tokenToEth",
      "outputs": [
        {
          "internalType": "uint256",
          "name": "",
          "type": "uint256"
        }
      ],
      "stateMutability": "nonpayable",
      "type": "function"
    },
    {
      "inputs": [],
      "name": "deposit",
      "outputs": [
        {
          "internalType": "uint256",
          "name": "",
          "type": "uint256"
        }
      ],
      "stateMutability": "payable",
      "type": "function"
    },
    {
      "inputs": [
        {
          "internalType": "uint256",
          "name": "amount",
          "type": "uint256"
        }
      ],
      "name": "withdraw",
      "outputs": [
        {
          "internalType": "uint256",
          "name": "",
          "type": "uint256"
        },
        {
          "internalType": "uint256",
          "name": "",
          "type": "uint256"
        }
      ],
      "stateMutability": "nonpayable",
      "type": "function"
    },
    {
      "inputs": [
        {
          "internalType": "uint256",
          "name": "valueEth",
          "type": "uint256"
        }
      ],
      "name": "depositTokenCalculator",
      "outputs": [
        {
          "internalType": "uint256",
          "name": "",
          "type": "uint256"
        }
      ],
      "stateMutability": "view",
      "type": "function"
    }
  ],
  "bytecode": "0x60806040523480156200001157600080fd5b506040516200140b3803806200140b833981810160405281019062000037919062000095565b806000806101000a81548173ffffffffffffffffffffffffffffffffffffffff021916908373ffffffffffffffffffffffffffffffffffffffff160217905550506200010f565b6000815190506200008f81620000f5565b92915050565b600060208284031215620000a857600080fd5b6000620000b8848285016200007e565b91505092915050565b6000620000ce82620000d5565b9050919050565b600073ffffffffffffffffffffffffffffffffffffffff82169050919050565b6200010081620000c1565b81146200010c57600080fd5b50565b6112ec806200011f6000396000f3fe6080604052600436106100865760003560e01c8063789770f411610059578063789770f41461016e57806399a40ef31461018c578063b7b0422d146101c9578063b8c876b1146101f9578063d0e30db01461023657610086565b806315770f921461008b5780632071a9f4146100b65780632e1a7d4d146100f357806370b2a30f14610131575b600080fd5b34801561009757600080fd5b506100a0610254565b6040516100ad9190611038565b60405180910390f35b3480156100c257600080fd5b506100dd60048036038101906100d89190610f0d565b61025a565b6040516100ea9190611038565b60405180910390f35b3480156100ff57600080fd5b5061011a60048036038101906101159190610ebb565b6102ce565b604051610128929190611053565b60405180910390f35b34801561013d57600080fd5b5061015860048036038101906101539190610ebb565b610582565b6040516101659190611038565b60405180910390f35b610176610748565b6040516101839190611038565b60405180910390f35b34801561019857600080fd5b506101b360048036038101906101ae9190610ebb565b6108d5565b6040516101c09190611038565b60405180910390f35b6101e360048036038101906101de9190610ebb565b6109d5565b6040516101f09190611038565b60405180910390f35b34801561020557600080fd5b50610220600480360381019061021b9190610e69565b610b2a565b60405161022d9190611038565b60405180910390f35b61023e610b42565b60405161024b9190611038565b60405180910390f35b60015481565b6000806102726103e586610dd390919063ffffffff16565b905060006102898483610dd390919063ffffffff16565b905060006102b4836102a66103e889610dd390919063ffffffff16565b610de990919063ffffffff16565b905080826102c291906110e3565b93505050509392505050565b60008060008060009054906101000a900473ffffffffffffffffffffffffffffffffffffffff1673ffffffffffffffffffffffffffffffffffffffff166370a08231306040518263ffffffff1660e01b815260040161032d9190610f9d565b60206040518083038186803b15801561034557600080fd5b505afa158015610359573d6000803e3d6000fd5b505050506040513d601f19601f8201168201806040525081019061037d9190610ee4565b905060006001546103974787610dd390919063ffffffff16565b6103a191906110e3565b905060006001546103bb8488610dd390919063ffffffff16565b6103c591906110e3565b905061041982600260003373ffffffffffffffffffffffffffffffffffffffff1673ffffffffffffffffffffffffffffffffffffffff16815260200190815260200160002054610dff90919063ffffffff16565b600260003373ffffffffffffffffffffffffffffffffffffffff1673ffffffffffffffffffffffffffffffffffffffff1681526020019081526020016000208190555061047182600154610dff90919063ffffffff16565b6001819055503373ffffffffffffffffffffffffffffffffffffffff166108fc839081150290604051600060405180830381858888f193505050501580156104bd573d6000803e3d6000fd5b5060008054906101000a900473ffffffffffffffffffffffffffffffffffffffff1673ffffffffffffffffffffffffffffffffffffffff1663a9059cbb33836040518363ffffffff1660e01b8152600401610519929190610fef565b602060405180830381600087803b15801561053357600080fd5b505af1158015610547573d6000803e3d6000fd5b505050506040513d601f19601f8201168201806040525081019061056b9190610e92565b61057457600080fd5b818194509450505050915091565b60008060008054906101000a900473ffffffffffffffffffffffffffffffffffffffff1673ffffffffffffffffffffffffffffffffffffffff166370a08231306040518263ffffffff1660e01b81526004016105de9190610f9d565b60206040518083038186803b1580156105f657600080fd5b505afa15801561060a573d6000803e3d6000fd5b505050506040513d601f19601f8201168201806040525081019061062e9190610ee4565b9050600061063d84834761025a565b90503373ffffffffffffffffffffffffffffffffffffffff166108fc829081150290604051600060405180830381858888f19350505050158015610685573d6000803e3d6000fd5b5060008054906101000a900473ffffffffffffffffffffffffffffffffffffffff1673ffffffffffffffffffffffffffffffffffffffff166323b872dd3330876040518463ffffffff1660e01b81526004016106e393929190610fb8565b602060405180830381600087803b1580156106fd57600080fd5b505af1158015610711573d6000803e3d6000fd5b505050506040513d601f19601f820116820180604052508101906107359190610e92565b61073e57600080fd5b8092505050919050565b60008060008054906101000a900473ffffffffffffffffffffffffffffffffffffffff1673ffffffffffffffffffffffffffffffffffffffff166370a08231306040518263ffffffff1660e01b81526004016107a49190610f9d565b60206040518083038186803b1580156107bc57600080fd5b505afa1580156107d0573d6000803e3d6000fd5b505050506040513d601f19601f820116820180604052508101906107f49190610ee4565b905060006108153461080f3447610dff90919063ffffffff16565b8461025a565b905060008054906101000a900473ffffffffffffffffffffffffffffffffffffffff1673ffffffffffffffffffffffffffffffffffffffff1663a9059cbb33836040518363ffffffff1660e01b8152600401610872929190610fef565b602060405180830381600087803b15801561088c57600080fd5b505af11580156108a0573d6000803e3d6000fd5b505050506040513d601f19601f820116820180604052508101906108c49190610e92565b6108cd57600080fd5b809250505090565b6000806108eb8347610dff90919063ffffffff16565b905060008060009054906101000a900473ffffffffffffffffffffffffffffffffffffffff1673ffffffffffffffffffffffffffffffffffffffff166370a08231306040518263ffffffff1660e01b81526004016109499190610f9d565b60206040518083038186803b15801561096157600080fd5b505afa158015610975573d6000803e3d6000fd5b505050506040513d601f19601f820116820180604052508101906109999190610ee4565b90506109cc6001836109b48488610dd390919063ffffffff16565b6109be91906110e3565b610de990919063ffffffff16565b92505050919050565b60008060015414610a1b576040517f08c379a0000000000000000000000000000000000000000000000000000000008152600401610a1290611018565b60405180910390fd5b47600181905550600154600260003373ffffffffffffffffffffffffffffffffffffffff1673ffffffffffffffffffffffffffffffffffffffff1681526020019081526020016000208190555060008054906101000a900473ffffffffffffffffffffffffffffffffffffffff1673ffffffffffffffffffffffffffffffffffffffff166323b872dd3330856040518463ffffffff1660e01b8152600401610ac593929190610fb8565b602060405180830381600087803b158015610adf57600080fd5b505af1158015610af3573d6000803e3d6000fd5b505050506040513d601f19601f82011682018060405250810190610b179190610e92565b610b2057600080fd5b6001549050919050565b60026020528060005260406000206000915090505481565b600080610b583447610dff90919063ffffffff16565b905060008060009054906101000a900473ffffffffffffffffffffffffffffffffffffffff1673ffffffffffffffffffffffffffffffffffffffff166370a08231306040518263ffffffff1660e01b8152600401610bb69190610f9d565b60206040518083038186803b158015610bce57600080fd5b505afa158015610be2573d6000803e3d6000fd5b505050506040513d601f19601f82011682018060405250810190610c069190610ee4565b90506000610c3b600184610c238534610dd390919063ffffffff16565b610c2d91906110e3565b610de990919063ffffffff16565b9050600083610c5560015434610dd390919063ffffffff16565b610c5f91906110e3565b9050610cb381600260003373ffffffffffffffffffffffffffffffffffffffff1673ffffffffffffffffffffffffffffffffffffffff16815260200190815260200160002054610de990919063ffffffff16565b600260003373ffffffffffffffffffffffffffffffffffffffff1673ffffffffffffffffffffffffffffffffffffffff16815260200190815260200160002081905550610d0b81600154610de990919063ffffffff16565b60018190555060008054906101000a900473ffffffffffffffffffffffffffffffffffffffff1673ffffffffffffffffffffffffffffffffffffffff166323b872dd3330856040518463ffffffff1660e01b8152600401610d6e93929190610fb8565b602060405180830381600087803b158015610d8857600080fd5b505af1158015610d9c573d6000803e3d6000fd5b505050506040513d601f19601f82011682018060405250810190610dc09190610e92565b610dc957600080fd5b8094505050505090565b60008183610de19190611114565b905092915050565b60008183610df7919061108d565b905092915050565b60008183610e0d919061116e565b905092915050565b600081359050610e2481611271565b92915050565b600081519050610e3981611288565b92915050565b600081359050610e4e8161129f565b92915050565b600081519050610e638161129f565b92915050565b600060208284031215610e7b57600080fd5b6000610e8984828501610e15565b91505092915050565b600060208284031215610ea457600080fd5b6000610eb284828501610e2a565b91505092915050565b600060208284031215610ecd57600080fd5b6000610edb84828501610e3f565b91505092915050565b600060208284031215610ef657600080fd5b6000610f0484828501610e54565b91505092915050565b600080600060608486031215610f2257600080fd5b6000610f3086828701610e3f565b9350506020610f4186828701610e3f565b9250506040610f5286828701610e3f565b9150509250925092565b610f65816111a2565b82525050565b6000610f78601b8361107c565b9150610f8382611248565b602082019050919050565b610f97816111e0565b82525050565b6000602082019050610fb26000830184610f5c565b92915050565b6000606082019050610fcd6000830186610f5c565b610fda6020830185610f5c565b610fe76040830184610f8e565b949350505050565b60006040820190506110046000830185610f5c565b6110116020830184610f8e565b9392505050565b6000602082019050818103600083015261103181610f6b565b9050919050565b600060208201905061104d6000830184610f8e565b92915050565b60006040820190506110686000830185610f8e565b6110756020830184610f8e565b9392505050565b600082825260208201905092915050565b6000611098826111e0565b91506110a3836111e0565b9250827fffffffffffffffffffffffffffffffffffffffffffffffffffffffffffffffff038211156110d8576110d76111ea565b5b828201905092915050565b60006110ee826111e0565b91506110f9836111e0565b92508261110957611108611219565b5b828204905092915050565b600061111f826111e0565b915061112a836111e0565b9250817fffffffffffffffffffffffffffffffffffffffffffffffffffffffffffffffff0483118215151615611163576111626111ea565b5b828202905092915050565b6000611179826111e0565b9150611184836111e0565b925082821015611197576111966111ea565b5b828203905092915050565b60006111ad826111c0565b9050919050565b60008115159050919050565b600073ffffffffffffffffffffffffffffffffffffffff82169050919050565b6000819050919050565b7f4e487b7100000000000000000000000000000000000000000000000000000000600052601160045260246000fd5b7f4e487b7100000000000000000000000000000000000000000000000000000000600052601260045260246000fd5b7f20706f6f6c20616c726561647920686173206c69717569646974790000000000600082015250565b61127a816111a2565b811461128557600080fd5b50565b611291816111b4565b811461129c57600080fd5b50565b6112a8816111e0565b81146112b357600080fd5b5056fea26469706673582212207b2d42f8326a8edf8d14a3eae7d35ca226c9b8e4447bfb94b68121be4e338b8c64736f6c63430008040033",
  "immutableReferences": {},
  "source": "pragma solidity ^0.8.0;\r\n\r\nimport \"@openzeppelin/contracts/utils/math/SafeMath.sol\";\r\nimport \"@openzeppelin/contracts/token/ERC20/IERC20.sol\";\r\nimport \"./IDEX.sol\";\r\n\r\ncontract DEX is IDEX {\r\n\r\n  using SafeMath for uint256;\r\n  IERC20 token;\r\n  uint256 public totalLiquidity;\r\n  mapping(address => uint256) public liquidity;\r\n\r\n  constructor(address token_addr) public {\r\n    token = IERC20(token_addr);\r\n  }\r\n\r\n  function init(uint256 tokens) public payable override  returns (uint256){\r\n    require(totalLiquidity==0,\" pool already has liquidity\");\r\n    totalLiquidity = address(this).balance;\r\n    liquidity[msg.sender]=totalLiquidity;\r\n    require(token.transferFrom(msg.sender,address(this), tokens));\r\n    return totalLiquidity;\r\n  }\r\n\r\n  function price(uint256 input_amount, uint256 input_reserve, uint256 output_reserve) public pure override returns (uint256) {\r\n    uint256 input_amount_with_fee = input_amount.mul(997);\r\n    uint256 numerator = input_amount_with_fee.mul(output_reserve);\r\n    uint256 denominator = input_reserve.mul(1000).add(input_amount_with_fee);\r\n    return numerator / denominator;\r\n  }\r\n\r\n  function ethToToken() public payable override returns (uint256) {\r\n    uint256 token_reserve = token.balanceOf(address(this));\r\n    uint256 tokens_bought = price(msg.value, address(this).balance.sub(msg.value), token_reserve);\r\n    require(token.transfer(msg.sender, tokens_bought));\r\n    return tokens_bought;\r\n  }\r\n\r\n  function tokenToEth(uint256 tokens) public override returns (uint256) {\r\n    uint256 token_reserve = token.balanceOf(address(this));\r\n    uint256 eth_bought = price(tokens, token_reserve, address(this).balance);\r\n    payable(msg.sender).transfer(eth_bought);\r\n    require(token.transferFrom(msg.sender, address(this), tokens));\r\n    return eth_bought;\r\n  }\r\n\r\n  function deposit() public payable override returns (uint256) {\r\n    uint256 eth_reserve = address(this).balance.sub(msg.value);\r\n    uint256 token_reserve = token.balanceOf(address(this));\r\n    uint256 token_amount = (msg.value.mul(token_reserve) / eth_reserve).add(1);\r\n    uint256 liquidity_minted = msg.value.mul(totalLiquidity) / eth_reserve;\r\n    liquidity[msg.sender] = liquidity[msg.sender].add(liquidity_minted);\r\n    totalLiquidity = totalLiquidity.add(liquidity_minted);\r\n    require(token.transferFrom(msg.sender, address(this), token_amount));\r\n    return liquidity_minted;\r\n  }\r\n\r\n  function withdraw(uint256 amount) public override returns (uint256, uint256) {\r\n    uint256 token_reserve = token.balanceOf(address(this));\r\n    uint256 eth_amount = amount.mul(address(this).balance) / totalLiquidity;\r\n    uint256 token_amount = amount.mul(token_reserve) / totalLiquidity;\r\n    liquidity[msg.sender] = liquidity[msg.sender].sub(eth_amount);\r\n    totalLiquidity = totalLiquidity.sub(eth_amount);\r\n    payable(msg.sender).transfer(eth_amount);\r\n    require(token.transfer(msg.sender, token_amount));\r\n    return (eth_amount, token_amount);\r\n  }\r\n\r\n  function depositTokenCalculator(uint256 valueEth)public view returns(uint256){\r\n    uint256 eth_reserve = address(this).balance.sub(valueEth);\r\n    uint256 token_reserve = token.balanceOf(address(this));\r\n    return (valueEth.mul(token_reserve) / eth_reserve).add(1);\r\n  }\r\n\r\n}\r\n",
  "sourcePath": "C:\\Ethereum\\dex\\contracts\\DEX.sol",
  "compiler": {
    "name": "solc",
    "version": "0.8.4+commit.c7e474f2.Emscripten.clang"
  },
  "schemaVersion": "3.2.3",
  "updatedAt": "2021-06-03T15:49:17.446Z",
  "devdoc": {
    "kind": "dev",
    "methods": {},
    "version": 1
  },
  "userdoc": {
    "kind": "user",
    "methods": {},
    "version": 1
  }
}