{
  "contractName": "DEX",
  "abi": [
    {
      "inputs": [
        {
          "internalType": "address",
          "name": "token_addr",
          "type": "address"
        }
      ],
      "stateMutability": "nonpayable",
      "type": "constructor"
    },
    {
      "inputs": [
        {
          "internalType": "address",
          "name": "",
          "type": "address"
        }
      ],
      "name": "liquidity",
      "outputs": [
        {
          "internalType": "uint256",
          "name": "",
          "type": "uint256"
        }
      ],
      "stateMutability": "view",
      "type": "function"
    },
    {
      "inputs": [],
      "name": "totalLiquidity",
      "outputs": [
        {
          "internalType": "uint256",
          "name": "",
          "type": "uint256"
        }
      ],
      "stateMutability": "view",
      "type": "function"
    },
    {
      "inputs": [
        {
          "internalType": "uint256",
          "name": "tokens",
          "type": "uint256"
        }
      ],
      "name": "init",
      "outputs": [
        {
          "internalType": "uint256",
          "name": "",
          "type": "uint256"
        }
      ],
      "stateMutability": "payable",
      "type": "function"
    },
    {
      "inputs": [
        {
          "internalType": "uint256",
          "name": "input_amount",
          "type": "uint256"
        },
        {
          "internalType": "uint256",
          "name": "input_reserve",
          "type": "uint256"
        },
        {
          "internalType": "uint256",
          "name": "output_reserve",
          "type": "uint256"
        }
      ],
      "name": "price",
      "outputs": [
        {
          "internalType": "uint256",
          "name": "",
          "type": "uint256"
        }
      ],
      "stateMutability": "pure",
      "type": "function"
    },
    {
      "inputs": [],
      "name": "ethToToken",
      "outputs": [
        {
          "internalType": "uint256",
          "name": "",
          "type": "uint256"
        }
      ],
      "stateMutability": "payable",
      "type": "function"
    },
    {
      "inputs": [
        {
          "internalType": "uint256",
          "name": "tokens",
          "type": "uint256"
        }
      ],
      "name": "tokenToEth",
      "outputs": [
        {
          "internalType": "uint256",
          "name": "",
          "type": "uint256"
        }
      ],
      "stateMutability": "nonpayable",
      "type": "function"
    },
    {
      "inputs": [],
      "name": "deposit",
      "outputs": [
        {
          "internalType": "uint256",
          "name": "",
          "type": "uint256"
        }
      ],
      "stateMutability": "payable",
      "type": "function"
    },
    {
      "inputs": [
        {
          "internalType": "uint256",
          "name": "amount",
          "type": "uint256"
        }
      ],
      "name": "withdraw",
      "outputs": [
        {
          "internalType": "uint256",
          "name": "",
          "type": "uint256"
        },
        {
          "internalType": "uint256",
          "name": "",
          "type": "uint256"
        }
      ],
      "stateMutability": "nonpayable",
      "type": "function"
    },
    {
      "inputs": [
        {
          "internalType": "uint256",
          "name": "valueEth",
          "type": "uint256"
        }
      ],
      "name": "depositTokenCalculator",
      "outputs": [
        {
          "internalType": "uint256",
          "name": "",
          "type": "uint256"
        }
      ],
      "stateMutability": "view",
      "type": "function"
    }
  ],
  "bytecode": "0x60806040523480156200001157600080fd5b506040516200142f3803806200142f833981810160405281019062000037919062000095565b806000806101000a81548173ffffffffffffffffffffffffffffffffffffffff021916908373ffffffffffffffffffffffffffffffffffffffff160217905550506200011a565b6000815190506200008f8162000100565b92915050565b600060208284031215620000ae57620000ad620000fb565b5b6000620000be848285016200007e565b91505092915050565b6000620000d482620000db565b9050919050565b600073ffffffffffffffffffffffffffffffffffffffff82169050919050565b600080fd5b6200010b81620000c7565b81146200011757600080fd5b50565b611305806200012a6000396000f3fe6080604052600436106100865760003560e01c8063789770f411610059578063789770f41461016e57806399a40ef31461018c578063b7b0422d146101c9578063b8c876b1146101f9578063d0e30db01461023657610086565b806315770f921461008b5780632071a9f4146100b65780632e1a7d4d146100f357806370b2a30f14610131575b600080fd5b34801561009757600080fd5b506100a0610254565b6040516100ad919061104c565b60405180910390f35b3480156100c257600080fd5b506100dd60048036038101906100d89190610f1d565b61025a565b6040516100ea919061104c565b60405180910390f35b3480156100ff57600080fd5b5061011a60048036038101906101159190610ec3565b6102ce565b604051610128929190611067565b60405180910390f35b34801561013d57600080fd5b5061015860048036038101906101539190610ec3565b610582565b604051610165919061104c565b60405180910390f35b610176610748565b604051610183919061104c565b60405180910390f35b34801561019857600080fd5b506101b360048036038101906101ae9190610ec3565b6108d5565b6040516101c0919061104c565b60405180910390f35b6101e360048036038101906101de9190610ec3565b6109d5565b6040516101f0919061104c565b60405180910390f35b34801561020557600080fd5b50610220600480360381019061021b9190610e69565b610b2a565b60405161022d919061104c565b60405180910390f35b61023e610b42565b60405161024b919061104c565b60405180910390f35b60015481565b6000806102726103e586610dd390919063ffffffff16565b905060006102898483610dd390919063ffffffff16565b905060006102b4836102a66103e889610dd390919063ffffffff16565b610de990919063ffffffff16565b905080826102c291906110f7565b93505050509392505050565b60008060008060009054906101000a900473ffffffffffffffffffffffffffffffffffffffff1673ffffffffffffffffffffffffffffffffffffffff166370a08231306040518263ffffffff1660e01b815260040161032d9190610fb1565b60206040518083038186803b15801561034557600080fd5b505afa158015610359573d6000803e3d6000fd5b505050506040513d601f19601f8201168201806040525081019061037d9190610ef0565b905060006001546103974787610dd390919063ffffffff16565b6103a191906110f7565b905060006001546103bb8488610dd390919063ffffffff16565b6103c591906110f7565b905061041982600260003373ffffffffffffffffffffffffffffffffffffffff1673ffffffffffffffffffffffffffffffffffffffff16815260200190815260200160002054610dff90919063ffffffff16565b600260003373ffffffffffffffffffffffffffffffffffffffff1673ffffffffffffffffffffffffffffffffffffffff1681526020019081526020016000208190555061047182600154610dff90919063ffffffff16565b6001819055503373ffffffffffffffffffffffffffffffffffffffff166108fc839081150290604051600060405180830381858888f193505050501580156104bd573d6000803e3d6000fd5b5060008054906101000a900473ffffffffffffffffffffffffffffffffffffffff1673ffffffffffffffffffffffffffffffffffffffff1663a9059cbb33836040518363ffffffff1660e01b8152600401610519929190611003565b602060405180830381600087803b15801561053357600080fd5b505af1158015610547573d6000803e3d6000fd5b505050506040513d601f19601f8201168201806040525081019061056b9190610e96565b61057457600080fd5b818194509450505050915091565b60008060008054906101000a900473ffffffffffffffffffffffffffffffffffffffff1673ffffffffffffffffffffffffffffffffffffffff166370a08231306040518263ffffffff1660e01b81526004016105de9190610fb1565b60206040518083038186803b1580156105f657600080fd5b505afa15801561060a573d6000803e3d6000fd5b505050506040513d601f19601f8201168201806040525081019061062e9190610ef0565b9050600061063d84834761025a565b90503373ffffffffffffffffffffffffffffffffffffffff166108fc829081150290604051600060405180830381858888f19350505050158015610685573d6000803e3d6000fd5b5060008054906101000a900473ffffffffffffffffffffffffffffffffffffffff1673ffffffffffffffffffffffffffffffffffffffff166323b872dd3330876040518463ffffffff1660e01b81526004016106e393929190610fcc565b602060405180830381600087803b1580156106fd57600080fd5b505af1158015610711573d6000803e3d6000fd5b505050506040513d601f19601f820116820180604052508101906107359190610e96565b61073e57600080fd5b8092505050919050565b60008060008054906101000a900473ffffffffffffffffffffffffffffffffffffffff1673ffffffffffffffffffffffffffffffffffffffff166370a08231306040518263ffffffff1660e01b81526004016107a49190610fb1565b60206040518083038186803b1580156107bc57600080fd5b505afa1580156107d0573d6000803e3d6000fd5b505050506040513d601f19601f820116820180604052508101906107f49190610ef0565b905060006108153461080f3447610dff90919063ffffffff16565b8461025a565b905060008054906101000a900473ffffffffffffffffffffffffffffffffffffffff1673ffffffffffffffffffffffffffffffffffffffff1663a9059cbb33836040518363ffffffff1660e01b8152600401610872929190611003565b602060405180830381600087803b15801561088c57600080fd5b505af11580156108a0573d6000803e3d6000fd5b505050506040513d601f19601f820116820180604052508101906108c49190610e96565b6108cd57600080fd5b809250505090565b6000806108eb8347610dff90919063ffffffff16565b905060008060009054906101000a900473ffffffffffffffffffffffffffffffffffffffff1673ffffffffffffffffffffffffffffffffffffffff166370a08231306040518263ffffffff1660e01b81526004016109499190610fb1565b60206040518083038186803b15801561096157600080fd5b505afa158015610975573d6000803e3d6000fd5b505050506040513d601f19601f820116820180604052508101906109999190610ef0565b90506109cc6001836109b48488610dd390919063ffffffff16565b6109be91906110f7565b610de990919063ffffffff16565b92505050919050565b60008060015414610a1b576040517f08c379a0000000000000000000000000000000000000000000000000000000008152600401610a129061102c565b60405180910390fd5b47600181905550600154600260003373ffffffffffffffffffffffffffffffffffffffff1673ffffffffffffffffffffffffffffffffffffffff1681526020019081526020016000208190555060008054906101000a900473ffffffffffffffffffffffffffffffffffffffff1673ffffffffffffffffffffffffffffffffffffffff166323b872dd3330856040518463ffffffff1660e01b8152600401610ac593929190610fcc565b602060405180830381600087803b158015610adf57600080fd5b505af1158015610af3573d6000803e3d6000fd5b505050506040513d601f19601f82011682018060405250810190610b179190610e96565b610b2057600080fd5b6001549050919050565b60026020528060005260406000206000915090505481565b600080610b583447610dff90919063ffffffff16565b905060008060009054906101000a900473ffffffffffffffffffffffffffffffffffffffff1673ffffffffffffffffffffffffffffffffffffffff166370a08231306040518263ffffffff1660e01b8152600401610bb69190610fb1565b60206040518083038186803b158015610bce57600080fd5b505afa158015610be2573d6000803e3d6000fd5b505050506040513d601f19601f82011682018060405250810190610c069190610ef0565b90506000610c3b600184610c238534610dd390919063ffffffff16565b610c2d91906110f7565b610de990919063ffffffff16565b9050600083610c5560015434610dd390919063ffffffff16565b610c5f91906110f7565b9050610cb381600260003373ffffffffffffffffffffffffffffffffffffffff1673ffffffffffffffffffffffffffffffffffffffff16815260200190815260200160002054610de990919063ffffffff16565b600260003373ffffffffffffffffffffffffffffffffffffffff1673ffffffffffffffffffffffffffffffffffffffff16815260200190815260200160002081905550610d0b81600154610de990919063ffffffff16565b60018190555060008054906101000a900473ffffffffffffffffffffffffffffffffffffffff1673ffffffffffffffffffffffffffffffffffffffff166323b872dd3330856040518463ffffffff1660e01b8152600401610d6e93929190610fcc565b602060405180830381600087803b158015610d8857600080fd5b505af1158015610d9c573d6000803e3d6000fd5b505050506040513d601f19601f82011682018060405250810190610dc09190610e96565b610dc957600080fd5b8094505050505090565b60008183610de19190611128565b905092915050565b60008183610df791906110a1565b905092915050565b60008183610e0d9190611182565b905092915050565b600081359050610e248161128a565b92915050565b600081519050610e39816112a1565b92915050565b600081359050610e4e816112b8565b92915050565b600081519050610e63816112b8565b92915050565b600060208284031215610e7f57610e7e61125c565b5b6000610e8d84828501610e15565b91505092915050565b600060208284031215610eac57610eab61125c565b5b6000610eba84828501610e2a565b91505092915050565b600060208284031215610ed957610ed861125c565b5b6000610ee784828501610e3f565b91505092915050565b600060208284031215610f0657610f0561125c565b5b6000610f1484828501610e54565b91505092915050565b600080600060608486031215610f3657610f3561125c565b5b6000610f4486828701610e3f565b9350506020610f5586828701610e3f565b9250506040610f6686828701610e3f565b9150509250925092565b610f79816111b6565b82525050565b6000610f8c601b83611090565b9150610f9782611261565b602082019050919050565b610fab816111f4565b82525050565b6000602082019050610fc66000830184610f70565b92915050565b6000606082019050610fe16000830186610f70565b610fee6020830185610f70565b610ffb6040830184610fa2565b949350505050565b60006040820190506110186000830185610f70565b6110256020830184610fa2565b9392505050565b6000602082019050818103600083015261104581610f7f565b9050919050565b60006020820190506110616000830184610fa2565b92915050565b600060408201905061107c6000830185610fa2565b6110896020830184610fa2565b9392505050565b600082825260208201905092915050565b60006110ac826111f4565b91506110b7836111f4565b9250827fffffffffffffffffffffffffffffffffffffffffffffffffffffffffffffffff038211156110ec576110eb6111fe565b5b828201905092915050565b6000611102826111f4565b915061110d836111f4565b92508261111d5761111c61122d565b5b828204905092915050565b6000611133826111f4565b915061113e836111f4565b9250817fffffffffffffffffffffffffffffffffffffffffffffffffffffffffffffffff0483118215151615611177576111766111fe565b5b828202905092915050565b600061118d826111f4565b9150611198836111f4565b9250828210156111ab576111aa6111fe565b5b828203905092915050565b60006111c1826111d4565b9050919050565b60008115159050919050565b600073ffffffffffffffffffffffffffffffffffffffff82169050919050565b6000819050919050565b7f4e487b7100000000000000000000000000000000000000000000000000000000600052601160045260246000fd5b7f4e487b7100000000000000000000000000000000000000000000000000000000600052601260045260246000fd5b600080fd5b7f20706f6f6c20616c726561647920686173206c69717569646974790000000000600082015250565b611293816111b6565b811461129e57600080fd5b50565b6112aa816111c8565b81146112b557600080fd5b50565b6112c1816111f4565b81146112cc57600080fd5b5056fea264697066735822122098fc1899b6b146031acdf3a0d5f4897fea60e0d75d20250a0a681342954357a664736f6c63430008060033",
  "immutableReferences": {},
  "source": "pragma solidity ^0.8.0;\r\n\r\nimport \"@openzeppelin/contracts/utils/math/SafeMath.sol\";\r\nimport \"@openzeppelin/contracts/token/ERC20/IERC20.sol\";\r\nimport \"./IDEX.sol\";\r\n\r\ncontract DEX is IDEX {\r\n\r\n  using SafeMath for uint256;\r\n  IERC20 token;\r\n  uint256 public totalLiquidity;\r\n  mapping(address => uint256) public liquidity;\r\n\r\n  constructor(address token_addr) public {\r\n    token = IERC20(token_addr);\r\n  }\r\n\r\n  function init(uint256 tokens) public payable override  returns (uint256){\r\n    require(totalLiquidity==0,\" pool already has liquidity\");\r\n    totalLiquidity = address(this).balance;\r\n    liquidity[msg.sender]=totalLiquidity;\r\n    require(token.transferFrom(msg.sender,address(this), tokens));\r\n    return totalLiquidity;\r\n  }\r\n\r\n  function price(uint256 input_amount, uint256 input_reserve, uint256 output_reserve) public pure override returns (uint256) {\r\n    uint256 input_amount_with_fee = input_amount.mul(997);\r\n    uint256 numerator = input_amount_with_fee.mul(output_reserve);\r\n    uint256 denominator = input_reserve.mul(1000).add(input_amount_with_fee);\r\n    return numerator / denominator;\r\n  }\r\n\r\n  function ethToToken() public payable override returns (uint256) {\r\n    uint256 token_reserve = token.balanceOf(address(this));\r\n    uint256 tokens_bought = price(msg.value, address(this).balance.sub(msg.value), token_reserve);\r\n    require(token.transfer(msg.sender, tokens_bought));\r\n    return tokens_bought;\r\n  }\r\n\r\n  function tokenToEth(uint256 tokens) public override returns (uint256) {\r\n    uint256 token_reserve = token.balanceOf(address(this));\r\n    uint256 eth_bought = price(tokens, token_reserve, address(this).balance);\r\n    payable(msg.sender).transfer(eth_bought);\r\n    require(token.transferFrom(msg.sender, address(this), tokens));\r\n    return eth_bought;\r\n  }\r\n\r\n  function deposit() public payable override returns (uint256) {\r\n    uint256 eth_reserve = address(this).balance.sub(msg.value);\r\n    uint256 token_reserve = token.balanceOf(address(this));\r\n    uint256 token_amount = (msg.value.mul(token_reserve) / eth_reserve).add(1);\r\n    uint256 liquidity_minted = msg.value.mul(totalLiquidity) / eth_reserve;\r\n    liquidity[msg.sender] = liquidity[msg.sender].add(liquidity_minted);\r\n    totalLiquidity = totalLiquidity.add(liquidity_minted);\r\n    require(token.transferFrom(msg.sender, address(this), token_amount));\r\n    return liquidity_minted;\r\n  }\r\n\r\n  function withdraw(uint256 amount) public override returns (uint256, uint256) {\r\n    uint256 token_reserve = token.balanceOf(address(this));\r\n    uint256 eth_amount = amount.mul(address(this).balance) / totalLiquidity;\r\n    uint256 token_amount = amount.mul(token_reserve) / totalLiquidity;\r\n    liquidity[msg.sender] = liquidity[msg.sender].sub(eth_amount);\r\n    totalLiquidity = totalLiquidity.sub(eth_amount);\r\n    payable(msg.sender).transfer(eth_amount);\r\n    require(token.transfer(msg.sender, token_amount));\r\n    return (eth_amount, token_amount);\r\n  }\r\n\r\n  function depositTokenCalculator(uint256 valueEth)public view returns(uint256){\r\n    uint256 eth_reserve = address(this).balance.sub(valueEth);\r\n    uint256 token_reserve = token.balanceOf(address(this));\r\n    return (valueEth.mul(token_reserve) / eth_reserve).add(1);\r\n  }\r\n\r\n}\r\n",
  "sourcePath": "C:\\Ethereum\\dex\\contracts\\DEX.sol",
  "compiler": {
    "name": "solc",
    "version": "0.8.6+commit.11564f7e.Emscripten.clang"
  },
  "schemaVersion": "3.2.3",
  "updatedAt": "2021-07-08T09:36:35.812Z",
  "devdoc": {
    "kind": "dev",
    "methods": {},
    "version": 1
  },
  "userdoc": {
    "kind": "user",
    "methods": {},
    "version": 1
  }
}