{
  "contractName": "Factory",
  "abi": [
    {
      "anonymous": false,
      "inputs": [
        {
          "indexed": false,
          "internalType": "address",
          "name": "token",
          "type": "address"
        },
        {
          "indexed": false,
          "internalType": "address",
          "name": "exchange",
          "type": "address"
        }
      ],
      "name": "NewExchange",
      "type": "event"
    },
    {
      "inputs": [
        {
          "internalType": "address",
          "name": "token",
          "type": "address"
        }
      ],
      "name": "createExchange",
      "outputs": [
        {
          "internalType": "address",
          "name": "",
          "type": "address"
        }
      ],
      "stateMutability": "nonpayable",
      "type": "function"
    },
    {
      "inputs": [
        {
          "internalType": "address",
          "name": "token",
          "type": "address"
        }
      ],
      "name": "getExchange",
      "outputs": [
        {
          "internalType": "address",
          "name": "",
          "type": "address"
        }
      ],
      "stateMutability": "view",
      "type": "function",
      "constant": true
    },
    {
      "inputs": [
        {
          "internalType": "string",
          "name": "ticker",
          "type": "string"
        }
      ],
      "name": "getExchangesByTicker",
      "outputs": [
        {
          "internalType": "address[]",
          "name": "",
          "type": "address[]"
        }
      ],
      "stateMutability": "view",
      "type": "function",
      "constant": true
    },
    {
      "inputs": [
        {
          "internalType": "string",
          "name": "ticker",
          "type": "string"
        }
      ],
      "name": "getTickerTokenAddress",
      "outputs": [
        {
          "internalType": "address",
          "name": "",
          "type": "address"
        }
      ],
      "stateMutability": "view",
      "type": "function",
      "constant": true
    }
  ],
  "bytecode": "0x608060405234801561001057600080fd5b50612127806100206000396000f3fe608060405234801561001057600080fd5b506004361061004c5760003560e01c806306f2bf62146100515780631648f38e146100815780631dae17e5146100b157806393bffd8e146100e1575b600080fd5b61006b6004803603810190610066919061086f565b610111565b6040516100789190610a3c565b60405180910390f35b61009b6004803603810190610096919061086f565b610246565b6040516100a89190610a3c565b60405180910390f35b6100cb60048036038101906100c69190610898565b610689565b6040516100d89190610a3c565b60405180910390f35b6100fb60048036038101906100f69190610898565b6106d1565b6040516101089190610a80565b60405180910390f35b60008073ffffffffffffffffffffffffffffffffffffffff166000808473ffffffffffffffffffffffffffffffffffffffff1673ffffffffffffffffffffffffffffffffffffffff16815260200190815260200160002060009054906101000a900473ffffffffffffffffffffffffffffffffffffffff1673ffffffffffffffffffffffffffffffffffffffff1614156101e0576040517f08c379a00000000000000000000000000000000000000000000000000000000081526004016101d790610ac2565b60405180910390fd5b6000808373ffffffffffffffffffffffffffffffffffffffff1673ffffffffffffffffffffffffffffffffffffffff16815260200190815260200160002060009054906101000a900473ffffffffffffffffffffffffffffffffffffffff169050919050565b60008073ffffffffffffffffffffffffffffffffffffffff168273ffffffffffffffffffffffffffffffffffffffff16141561028157600080fd5b600073ffffffffffffffffffffffffffffffffffffffff166000808473ffffffffffffffffffffffffffffffffffffffff1673ffffffffffffffffffffffffffffffffffffffff16815260200190815260200160002060009054906101000a900473ffffffffffffffffffffffffffffffffffffffff1673ffffffffffffffffffffffffffffffffffffffff161461034e576040517f08c379a000000000000000000000000000000000000000000000000000000000815260040161034590610aa2565b60405180910390fd5b60008260405161035d9061077d565b6103679190610a3c565b604051809103906000f080158015610383573d6000803e3d6000fd5b509050806000808573ffffffffffffffffffffffffffffffffffffffff1673ffffffffffffffffffffffffffffffffffffffff16815260200190815260200160002060006101000a81548173ffffffffffffffffffffffffffffffffffffffff021916908373ffffffffffffffffffffffffffffffffffffffff160217905550600083905060018173ffffffffffffffffffffffffffffffffffffffff166395d89b416040518163ffffffff1660e01b815260040160006040518083038186803b15801561045057600080fd5b505afa158015610464573d6000803e3d6000fd5b505050506040513d6000823e3d601f19601f8201168201806040525081019061048d91906108d9565b60405161049a9190610a25565b90815260200160405180910390206000808673ffffffffffffffffffffffffffffffffffffffff1673ffffffffffffffffffffffffffffffffffffffff16815260200190815260200160002060009054906101000a900473ffffffffffffffffffffffffffffffffffffffff169080600181540180825580915050600190039060005260206000200160009091909190916101000a81548173ffffffffffffffffffffffffffffffffffffffff021916908373ffffffffffffffffffffffffffffffffffffffff1602179055508360028273ffffffffffffffffffffffffffffffffffffffff166395d89b416040518163ffffffff1660e01b815260040160006040518083038186803b1580156105b057600080fd5b505afa1580156105c4573d6000803e3d6000fd5b505050506040513d6000823e3d601f19601f820116820180604052508101906105ed91906108d9565b6040516105fa9190610a25565b908152602001604051809103902060006101000a81548173ffffffffffffffffffffffffffffffffffffffff021916908373ffffffffffffffffffffffffffffffffffffffff1602179055507f9d42cb017eb05bd8944ab536a8b35bc68085931dd5f4356489801453923953f98483604051610677929190610a57565b60405180910390a18192505050919050565b600060028260405161069b9190610a25565b908152602001604051809103902060009054906101000a900473ffffffffffffffffffffffffffffffffffffffff169050919050565b60606001826040516106e39190610a25565b908152602001604051809103902080548060200260200160405190810160405280929190818152602001828054801561077157602002820191906000526020600020905b8160009054906101000a900473ffffffffffffffffffffffffffffffffffffffff1673ffffffffffffffffffffffffffffffffffffffff1681526020019060010190808311610727575b50505050509050919050565b61140b80610ce783390190565b600061079d61079884610b07565b610ae2565b9050828152602081018484840111156107b557600080fd5b6107c0848285610bca565b509392505050565b60006107db6107d684610b07565b610ae2565b9050828152602081018484840111156107f357600080fd5b6107fe848285610bd9565b509392505050565b60008135905061081581610ccf565b92915050565b600082601f83011261082c57600080fd5b813561083c84826020860161078a565b91505092915050565b600082601f83011261085657600080fd5b81516108668482602086016107c8565b91505092915050565b60006020828403121561088157600080fd5b600061088f84828501610806565b91505092915050565b6000602082840312156108aa57600080fd5b600082013567ffffffffffffffff8111156108c457600080fd5b6108d08482850161081b565b91505092915050565b6000602082840312156108eb57600080fd5b600082015167ffffffffffffffff81111561090557600080fd5b61091184828501610845565b91505092915050565b60006109268383610932565b60208301905092915050565b61093b81610b98565b82525050565b61094a81610b98565b82525050565b600061095b82610b48565b6109658185610b6b565b935061097083610b38565b8060005b838110156109a1578151610988888261091a565b975061099383610b5e565b925050600181019050610974565b5085935050505092915050565b60006109b982610b53565b6109c38185610b8d565b93506109d3818560208601610bd9565b80840191505092915050565b60006109ec601a83610b7c565b91506109f782610c7d565b602082019050919050565b6000610a0f601a83610b7c565b9150610a1a82610ca6565b602082019050919050565b6000610a3182846109ae565b915081905092915050565b6000602082019050610a516000830184610941565b92915050565b6000604082019050610a6c6000830185610941565b610a796020830184610941565b9392505050565b60006020820190508181036000830152610a9a8184610950565b905092915050565b60006020820190508181036000830152610abb816109df565b9050919050565b60006020820190508181036000830152610adb81610a02565b9050919050565b6000610aec610afd565b9050610af88282610c0c565b919050565b6000604051905090565b600067ffffffffffffffff821115610b2257610b21610c3d565b5b610b2b82610c6c565b9050602081019050919050565b6000819050602082019050919050565b600081519050919050565b600081519050919050565b6000602082019050919050565b600082825260208201905092915050565b600082825260208201905092915050565b600081905092915050565b6000610ba382610baa565b9050919050565b600073ffffffffffffffffffffffffffffffffffffffff82169050919050565b82818337600083830152505050565b60005b83811015610bf7578082015181840152602081019050610bdc565b83811115610c06576000848401525b50505050565b610c1582610c6c565b810181811067ffffffffffffffff82111715610c3457610c33610c3d565b5b80604052505050565b7f4e487b7100000000000000000000000000000000000000000000000000000000600052604160045260246000fd5b6000601f19601f8301169050919050565b7f506f6f6c20697320616c726561647920696e69746c69617a6564000000000000600082015250565b7f4e6f2065786368616e676520666f72207468617420746f6b656e000000000000600082015250565b610cd881610b98565b8114610ce357600080fd5b5056fe60806040523480156200001157600080fd5b506040516200140b3803806200140b833981810160405281019062000037919062000095565b806000806101000a81548173ffffffffffffffffffffffffffffffffffffffff021916908373ffffffffffffffffffffffffffffffffffffffff160217905550506200010f565b6000815190506200008f81620000f5565b92915050565b600060208284031215620000a857600080fd5b6000620000b8848285016200007e565b91505092915050565b6000620000ce82620000d5565b9050919050565b600073ffffffffffffffffffffffffffffffffffffffff82169050919050565b6200010081620000c1565b81146200010c57600080fd5b50565b6112ec806200011f6000396000f3fe6080604052600436106100865760003560e01c8063789770f411610059578063789770f41461016e57806399a40ef31461018c578063b7b0422d146101c9578063b8c876b1146101f9578063d0e30db01461023657610086565b806315770f921461008b5780632071a9f4146100b65780632e1a7d4d146100f357806370b2a30f14610131575b600080fd5b34801561009757600080fd5b506100a0610254565b6040516100ad9190611038565b60405180910390f35b3480156100c257600080fd5b506100dd60048036038101906100d89190610f0d565b61025a565b6040516100ea9190611038565b60405180910390f35b3480156100ff57600080fd5b5061011a60048036038101906101159190610ebb565b6102ce565b604051610128929190611053565b60405180910390f35b34801561013d57600080fd5b5061015860048036038101906101539190610ebb565b610582565b6040516101659190611038565b60405180910390f35b610176610748565b6040516101839190611038565b60405180910390f35b34801561019857600080fd5b506101b360048036038101906101ae9190610ebb565b6108d5565b6040516101c09190611038565b60405180910390f35b6101e360048036038101906101de9190610ebb565b6109d5565b6040516101f09190611038565b60405180910390f35b34801561020557600080fd5b50610220600480360381019061021b9190610e69565b610b2a565b60405161022d9190611038565b60405180910390f35b61023e610b42565b60405161024b9190611038565b60405180910390f35b60015481565b6000806102726103e586610dd390919063ffffffff16565b905060006102898483610dd390919063ffffffff16565b905060006102b4836102a66103e889610dd390919063ffffffff16565b610de990919063ffffffff16565b905080826102c291906110e3565b93505050509392505050565b60008060008060009054906101000a900473ffffffffffffffffffffffffffffffffffffffff1673ffffffffffffffffffffffffffffffffffffffff166370a08231306040518263ffffffff1660e01b815260040161032d9190610f9d565b60206040518083038186803b15801561034557600080fd5b505afa158015610359573d6000803e3d6000fd5b505050506040513d601f19601f8201168201806040525081019061037d9190610ee4565b905060006001546103974787610dd390919063ffffffff16565b6103a191906110e3565b905060006001546103bb8488610dd390919063ffffffff16565b6103c591906110e3565b905061041982600260003373ffffffffffffffffffffffffffffffffffffffff1673ffffffffffffffffffffffffffffffffffffffff16815260200190815260200160002054610dff90919063ffffffff16565b600260003373ffffffffffffffffffffffffffffffffffffffff1673ffffffffffffffffffffffffffffffffffffffff1681526020019081526020016000208190555061047182600154610dff90919063ffffffff16565b6001819055503373ffffffffffffffffffffffffffffffffffffffff166108fc839081150290604051600060405180830381858888f193505050501580156104bd573d6000803e3d6000fd5b5060008054906101000a900473ffffffffffffffffffffffffffffffffffffffff1673ffffffffffffffffffffffffffffffffffffffff1663a9059cbb33836040518363ffffffff1660e01b8152600401610519929190610fef565b602060405180830381600087803b15801561053357600080fd5b505af1158015610547573d6000803e3d6000fd5b505050506040513d601f19601f8201168201806040525081019061056b9190610e92565b61057457600080fd5b818194509450505050915091565b60008060008054906101000a900473ffffffffffffffffffffffffffffffffffffffff1673ffffffffffffffffffffffffffffffffffffffff166370a08231306040518263ffffffff1660e01b81526004016105de9190610f9d565b60206040518083038186803b1580156105f657600080fd5b505afa15801561060a573d6000803e3d6000fd5b505050506040513d601f19601f8201168201806040525081019061062e9190610ee4565b9050600061063d84834761025a565b90503373ffffffffffffffffffffffffffffffffffffffff166108fc829081150290604051600060405180830381858888f19350505050158015610685573d6000803e3d6000fd5b5060008054906101000a900473ffffffffffffffffffffffffffffffffffffffff1673ffffffffffffffffffffffffffffffffffffffff166323b872dd3330876040518463ffffffff1660e01b81526004016106e393929190610fb8565b602060405180830381600087803b1580156106fd57600080fd5b505af1158015610711573d6000803e3d6000fd5b505050506040513d601f19601f820116820180604052508101906107359190610e92565b61073e57600080fd5b8092505050919050565b60008060008054906101000a900473ffffffffffffffffffffffffffffffffffffffff1673ffffffffffffffffffffffffffffffffffffffff166370a08231306040518263ffffffff1660e01b81526004016107a49190610f9d565b60206040518083038186803b1580156107bc57600080fd5b505afa1580156107d0573d6000803e3d6000fd5b505050506040513d601f19601f820116820180604052508101906107f49190610ee4565b905060006108153461080f3447610dff90919063ffffffff16565b8461025a565b905060008054906101000a900473ffffffffffffffffffffffffffffffffffffffff1673ffffffffffffffffffffffffffffffffffffffff1663a9059cbb33836040518363ffffffff1660e01b8152600401610872929190610fef565b602060405180830381600087803b15801561088c57600080fd5b505af11580156108a0573d6000803e3d6000fd5b505050506040513d601f19601f820116820180604052508101906108c49190610e92565b6108cd57600080fd5b809250505090565b6000806108eb8347610dff90919063ffffffff16565b905060008060009054906101000a900473ffffffffffffffffffffffffffffffffffffffff1673ffffffffffffffffffffffffffffffffffffffff166370a08231306040518263ffffffff1660e01b81526004016109499190610f9d565b60206040518083038186803b15801561096157600080fd5b505afa158015610975573d6000803e3d6000fd5b505050506040513d601f19601f820116820180604052508101906109999190610ee4565b90506109cc6001836109b48488610dd390919063ffffffff16565b6109be91906110e3565b610de990919063ffffffff16565b92505050919050565b60008060015414610a1b576040517f08c379a0000000000000000000000000000000000000000000000000000000008152600401610a1290611018565b60405180910390fd5b47600181905550600154600260003373ffffffffffffffffffffffffffffffffffffffff1673ffffffffffffffffffffffffffffffffffffffff1681526020019081526020016000208190555060008054906101000a900473ffffffffffffffffffffffffffffffffffffffff1673ffffffffffffffffffffffffffffffffffffffff166323b872dd3330856040518463ffffffff1660e01b8152600401610ac593929190610fb8565b602060405180830381600087803b158015610adf57600080fd5b505af1158015610af3573d6000803e3d6000fd5b505050506040513d601f19601f82011682018060405250810190610b179190610e92565b610b2057600080fd5b6001549050919050565b60026020528060005260406000206000915090505481565b600080610b583447610dff90919063ffffffff16565b905060008060009054906101000a900473ffffffffffffffffffffffffffffffffffffffff1673ffffffffffffffffffffffffffffffffffffffff166370a08231306040518263ffffffff1660e01b8152600401610bb69190610f9d565b60206040518083038186803b158015610bce57600080fd5b505afa158015610be2573d6000803e3d6000fd5b505050506040513d601f19601f82011682018060405250810190610c069190610ee4565b90506000610c3b600184610c238534610dd390919063ffffffff16565b610c2d91906110e3565b610de990919063ffffffff16565b9050600083610c5560015434610dd390919063ffffffff16565b610c5f91906110e3565b9050610cb381600260003373ffffffffffffffffffffffffffffffffffffffff1673ffffffffffffffffffffffffffffffffffffffff16815260200190815260200160002054610de990919063ffffffff16565b600260003373ffffffffffffffffffffffffffffffffffffffff1673ffffffffffffffffffffffffffffffffffffffff16815260200190815260200160002081905550610d0b81600154610de990919063ffffffff16565b60018190555060008054906101000a900473ffffffffffffffffffffffffffffffffffffffff1673ffffffffffffffffffffffffffffffffffffffff166323b872dd3330856040518463ffffffff1660e01b8152600401610d6e93929190610fb8565b602060405180830381600087803b158015610d8857600080fd5b505af1158015610d9c573d6000803e3d6000fd5b505050506040513d601f19601f82011682018060405250810190610dc09190610e92565b610dc957600080fd5b8094505050505090565b60008183610de19190611114565b905092915050565b60008183610df7919061108d565b905092915050565b60008183610e0d919061116e565b905092915050565b600081359050610e2481611271565b92915050565b600081519050610e3981611288565b92915050565b600081359050610e4e8161129f565b92915050565b600081519050610e638161129f565b92915050565b600060208284031215610e7b57600080fd5b6000610e8984828501610e15565b91505092915050565b600060208284031215610ea457600080fd5b6000610eb284828501610e2a565b91505092915050565b600060208284031215610ecd57600080fd5b6000610edb84828501610e3f565b91505092915050565b600060208284031215610ef657600080fd5b6000610f0484828501610e54565b91505092915050565b600080600060608486031215610f2257600080fd5b6000610f3086828701610e3f565b9350506020610f4186828701610e3f565b9250506040610f5286828701610e3f565b9150509250925092565b610f65816111a2565b82525050565b6000610f78601b8361107c565b9150610f8382611248565b602082019050919050565b610f97816111e0565b82525050565b6000602082019050610fb26000830184610f5c565b92915050565b6000606082019050610fcd6000830186610f5c565b610fda6020830185610f5c565b610fe76040830184610f8e565b949350505050565b60006040820190506110046000830185610f5c565b6110116020830184610f8e565b9392505050565b6000602082019050818103600083015261103181610f6b565b9050919050565b600060208201905061104d6000830184610f8e565b92915050565b60006040820190506110686000830185610f8e565b6110756020830184610f8e565b9392505050565b600082825260208201905092915050565b6000611098826111e0565b91506110a3836111e0565b9250827fffffffffffffffffffffffffffffffffffffffffffffffffffffffffffffffff038211156110d8576110d76111ea565b5b828201905092915050565b60006110ee826111e0565b91506110f9836111e0565b92508261110957611108611219565b5b828204905092915050565b600061111f826111e0565b915061112a836111e0565b9250817fffffffffffffffffffffffffffffffffffffffffffffffffffffffffffffffff0483118215151615611163576111626111ea565b5b828202905092915050565b6000611179826111e0565b9150611184836111e0565b925082821015611197576111966111ea565b5b828203905092915050565b60006111ad826111c0565b9050919050565b60008115159050919050565b600073ffffffffffffffffffffffffffffffffffffffff82169050919050565b6000819050919050565b7f4e487b7100000000000000000000000000000000000000000000000000000000600052601160045260246000fd5b7f4e487b7100000000000000000000000000000000000000000000000000000000600052601260045260246000fd5b7f20706f6f6c20616c726561647920686173206c69717569646974790000000000600082015250565b61127a816111a2565b811461128557600080fd5b50565b611291816111b4565b811461129c57600080fd5b50565b6112a8816111e0565b81146112b357600080fd5b5056fea26469706673582212207b2d42f8326a8edf8d14a3eae7d35ca226c9b8e4447bfb94b68121be4e338b8c64736f6c63430008040033a2646970667358221220fb94a48672bbb7bd197e7bf9be398ebb0c66a561a909b3fdeb0493dfed978a9164736f6c63430008040033",
  "immutableReferences": {},
  "source": "pragma solidity ^0.8.0;\r\nimport \"./DEX.sol\";\r\nimport \"@openzeppelin/contracts/token/ERC20/extensions/IERC20Metadata.sol\";\r\n\r\ncontract Factory {\r\n\r\n    mapping(address => address) pools;\r\n    mapping(string => address[]) tickerPools;\r\n    mapping(string => address) tickerAddress;\r\n\r\n    event NewExchange(address token, address exchange);\r\n\r\n\r\n    function createExchange(address token) public returns (address){\r\n        require(token != address(0));\r\n        require(pools[token] == address(0), \"Pool is already initliazed\");\r\n        DEX dex = new DEX(token);\r\n        pools[token]=address(dex);\r\n        IERC20Metadata tokenMetadata = IERC20Metadata(token);\r\n        tickerPools[tokenMetadata.symbol()].push(pools[token]);\r\n        tickerAddress[tokenMetadata.symbol()] = token;\r\n        emit NewExchange(token, address(dex));\r\n        return address(dex);\r\n    }\r\n\r\n\r\n    function getExchange(address token) public view returns(address){\r\n        require(pools[token]!=address(0),\"No exchange for that token\");\r\n        return pools[token];\r\n    }\r\n\r\n    function getExchangesByTicker(string memory ticker) public view returns(address[] memory){\r\n        return tickerPools[ticker];\r\n    }\r\n\r\n    function getTickerTokenAddress(string memory ticker) public view returns(address){\r\n        return tickerAddress[ticker];\r\n    }\r\n\r\n}",
  "sourcePath": "C:/Ethereum/dex/contracts/Factory.sol",
  "compiler": {
    "name": "solc",
    "version": "0.8.4+commit.c7e474f2.Emscripten.clang"
  },
  "schemaVersion": "3.2.3",
  "updatedAt": "2021-07-08T09:36:37.538Z",
  "networkType": "ethereum",
  "devdoc": {
    "kind": "dev",
    "methods": {},
    "version": 1
  },
  "userdoc": {
    "kind": "user",
    "methods": {},
    "version": 1
  }
}